S00C0000524649442E73726563F3
S113000013C037C036C035C034C033C032C031C06D
S113001030C02FC02EC02DC02CC02BC02AC029C078
S113002028C027C026C0310111241FBECFE5D4E06B
S1130030DEBFCDBF10E0A0E6B0E0E8E5FFE002C01F
S113004005900D92AC36B107D9F720E0ACE6B0E0EC
S113005001C01D92A037B207E1F710E0C4E1D0E07F
S113006003C02197FE0183D4C331D107D1F788D0CF
S113007071C7C6CF10BC8CE089B988E18AB986E81B
S113008080BD08955D9BFECF8CB9089587B38C62C3
S113009087BB8DB181658DB9C29A0895CF93DF93E3
S11300A0EC018881882329F02196ECDF8991811164
S11300B0FCCFDF91CF910895AF92BF92CF92DF92A0
S11300C0EF92FF920F931F93CF93DF9300D0CDB79E
S11300D0DEB780E090E0F2D61F928F9380E690E046
S11300E09F938F93CE0101969F938F9346D48981DA
S11300F0C9DF8A81C7DF0F900F900F900F900F9088
S11301000F9000E010E00F2EF0E6EF2EF0E0FF2E4F
S1130110F02DCE0101965C010F2EF5E0CF2ED12CEF
S1130120F02D1AC0C801CAD61F928F93FF92EF9286
S1130130BF92AF9222D48981A5DF8A81A3DFC8014F
S1130140B601EED30F900F900F900F900F900F9079
S1130150049711F48AE096DF0F5F1F4F04311105F5
S113016009F78AE08FDF0F900F90DF91CF911F91F5
S11301700F91FF90EF90DF90CF90BF90AF900895D4
S1130180CF93DF93CDB7DEB762970FB6F894DEBF97
S11301900FBECDBF7BDF6EDF80E881BB8CE690E0D5
S11301A019D185E690E07ADF7724739410E000E1BA
S11301B09E012F5F3F4F49010F2EF0E6AF2EF0E076
S11301C0BF2EF02D6E0131E1C30ED11C612CF40160
S11301D0202F11922A95E9F7A40166E28CE690E0BB
S11301E037D2811135C0143198F5B4018CE690E012
S11301F067D28981882309F1FE0131967F011F921C
S11302008F93BF92AF92DF92CF92B7D389893ADFAF
S11302108A8938DF0F900F900F900F900F900F90F6
S1130220153159F0F70161917F01812F90E04ED68D
S11302301F5FF70180818111E2CF8AE023DF979A63
S1130240B4018CE690E0DFD28CE690E02DD3979851
S1130250143109F0BCCF772009F4B9CF2DDF762C07
S1130260B6CF46E050E062E070E08CE690E006D065
S113027008958FB9779BFECF8FB10895FC016083F9
S1130280718377B321E030E0C90102C0880F991F60
S11302906A95E2F7872B87BB68B3C901008002C067
S11302A0880F991F0A94E2F7862B88BB42835383F5
S11302B054B3C90102C0880F991F4A95E2F7852BF0
S11302C084BB85B3028002C0220F331F0A94E2F775
S11302D0282B25BB0895FF920F931F93CF93DF9391
S11302E08C01F42E98B3C1E0D0E09E01F8010080A7
S11302F002C0220F331F0A94E2F7822F80958923CC
S113030088BB862F880F8E77B4DF8F2DB2DF88B33A
S1130310F801008002C0CC0FDD1F0A94E2F7C82B5D
S1130320C8BBDF91CF911F910F91FF9008950F9358
S11303301F93CF93DF938C0128B3C1E0D0E0AE01CB
S1130340FC01008002C0440F551F0A94E2F7942F69
S11303509095922398BB862F880F8E77806889DFCB
S113036080E087DF98B3F801008002C0CC0FDD1F66
S11303700A94E2F7C92BC8BBDF91CF911F910F916B
S113038008954FE061E0A7DF08950F931F93CF9383
S1130390DF938C01D62FC42FCADF482F4C2B6D2F2F
S11303A0C80199DFDF91CF911F910F9108950F93A9
S11303B01F93CF93DF938C01D62FC42FB8DFC09542
S11303C04C2F48236D2FC80186DFDF91CF911F91F9
S11303D00F910895CF93DF93EC0128B381E090E06F
S11303E0088002C0880F991F0A94E2F7822B88BB09
S11303F0CE01C7DF4DE86AE2CE016DDF4EE36BE26A
S1130400CE0169DF4EE16DE2CE0165DF40E06CE2D2
S1130410CE0161DF40E465E1CE015DDF4DE361E1E2
S1130420CE0159DF43E064E1CE01AFDFDF91CF912C
S113043008955F926F927F928F929F92AF92BF9234
S1130440CF92DF92EF92FF920F931F93CF93DF939C
S11304506C01562EC42FD52F490137018CE0681743
S113046009F4B5C09EE0691308C06894FF24F4F849
S11304700F2EF2E1EF2EF02D02C0F12CE12C4E2DC7
S1130480406862E0C60127DF40E864E0C6018FDF10
S113049040E86AE0C60179DF40E061E0C6011BDFA5
S11304A01814190474F4AC2EBD2EC0E0D0E0F5018C
S11304B041915F0169E0C6010EDF2196C815D90597
S11304C0B4F3452D61E0C60106DFFCE05F1204C011
S11304D040E86DE0C60159DF81EE94E00197F1F741
S11304E000C0000064E0C60122DFB82EC8E1D0E0FD
S11304F09F2D9160F92E0DC0E1EEF4E03197F1F7F4
S113050000C0000064E0C60112DFB82E219709F490
S11305107AC08F2D8B2181F37DC08E2D8170B822FE
S1130520D1E0C0E009F4D0E0FCE05F127FC06AE0F3
S1130530C601FDDEF82E6CE0C601F9DE282F277017
S113054079F08F2D90E00197880F991F880F991FDC
S1130550880F991F820F911DF301918380830BC033
S11305608F2D90E0880F991F880F991F880F991F6E
S1130570F30191838083FF2051F08F2D813108F0A6
S113058080E1A82EB12C1A141B0424F04FC0AA2415
S1130590A394B12CE02EF12E00E010E069E0C60136
S11305A0C6DEF70181937F010F5F1F4F0A151B05FC
S11305B0ACF33CC04CE061E0C6018DDE0F2EF0E3ED
S11305C0FF2EF02D0F2EF7E7EF2EF02D81CF47EF02
S11305D062E0C60180DE40E864E0C601E8DE40E88F
S11305E06AE0C601D2DE40E061E0C60174DE1814A0
S11305F0190404F70F2EF0E3FF2EF02D0F2EF7E76A
S1130600EF2EF02D50CF40E86DE0C601D0DED2E0F1
S1130610C0E00CC040E86DE0C601C9DE66E0C6017A
S113062086DE8D7109F479CFD2E0C0E08D2F9C2F46
S1130630DF91CF911F910F91FF90EF90DF90CF90BA
S1130640BF90AF909F908F907F906F905F90089530
S1130650AF92BF92CF92DF92EF92FF920F931F93CC
S1130660CF93DF9300D0CDB7DEB75C01162F6A01BC
S113067047E06DE030DEF6011083CE0101967C0187
S1130680860121E030E0A6016CE0C501D2DE0097CE
S113069041F429813A812031310529F082E090E04A
S11306A002C082E090E00F900F90DF91CF911F91F4
S11306B00F91FF90EF90DF90CF90BF90AF9008958F
S11306C0AF92BF92CF92DF92EF92FF920F931F935C
S11306D0CF93DF9300D0CDB7DEB75C016B0140E070
S11306E06DE0F9DD83E9F601808380E28183CE0148
S11306F001967C01860122E030E0A6016CE0C50190
S113070098DEBC01892B49F529813A81332314F4FD
S1130710295F3F4F3595279535952795359527952D
S1130720C9010197181619066CF4F601AC01D6013B
S1130730A80FB91F90E021919227EA17FB07D9F778
S11307409A0103C090E020E030E0F601E20FF31FCD
S11307508081891711F062E070E0CB010F900F9057
S1130760DF91CF911F910F91FF90EF90DF90CF9089
S1130770BF90AF900895AF92BF92CF92DF92EF9265
S1130780FF920F931F93CF93DF938C015B016A0158
S1130790790144E065E00BDE40E86AE0C801F5DD7C
S11307A01C141D0454F4E501CA0CDB1C499169E0D6
S11307B0C80191DDCC15DD05C9F743E061E0C8014E
S11307C08ADD65E0C801B3DDCEEFD0E005C065E0A9
S11307D0C801ADDD219711F082FFF9CF62E2C801B3
S11307E0A6DDF701808361E2C801A1DDF701818301
S11307F0DF91CF911F910F91FF90EF90DF90CF90F9
S1130800BF90AF900895CF92DF92EF92FF920F9333
S11308101F93CF93DF93CDB7DEB72B970FB6F89422
S1130820DEBF0FBECDBF6C0183E98B8380E78C8371
S1130830A62FB72FFE0135969E01265F3F4F8D915F
S11308408193E217F307D9F79E01265F3F4F47E0F4
S113085050E0BE016D5F7F4FC6018DDFCE01019672
S11308607C018E010D5F1F4F29E030E0A8016CE090
S1130870C601DFDD892B31F489819A81489721F4FF
S11308808B8103C080E001C080E02B960FB6F89402
S1130890DEBF0FBECDBFDF91CF911F910F91FF90AF
S11308A0EF90DF90CF900895CF92DF92EF92FF9276
S11308B00F931F93CF93DF9300D000D000D0CDB718
S11308C0DEB76C0180E58B831C829E012B5F3F4F5A
S11308D042E050E0BE016D5F7F4FC6014CDFCE01A8
S11308E001967C018E010D5F1F4F24E030E0A801CA
S11308F06CE0C6019EDD8C0148E068E0C60157DD6E
S1130900C80126960FB6F894DEBF0FBECDBFDF91A7
S1130910CF911F910F91FF90EF90DF90CF900895AA
S113092097FB072E16F4009406D077FD08D00BD061
S113093007FC05D03EF4909581959F4F08957095DE
S113094061957F4F0895AA1BBB1B51E107C0AA1FE5
S1130950BB1FA617B70710F0A61BB70B881F991F5C
S11309605A95A9F780959095BC01CD010895EE0F95
S1130970FF1F0590F491E02D0994AEE0B0E0E2ECA5
S1130980F4E0BFC20D891E8986E08C831A83098333
S11309908FEF9FE79E838D83AE01475E5F4F6F8924
S11309A0788DCE01019608D0EF81F885E00FF11F14
S11309B010822E96E4E0C1C2ABE0B0E0E1EEF4E0D8
S11309C092C26C017B018A01FC0117821682838129
S11309D081FFBFC1CE0101963C01F6019381F7016D
S11309E093FD859193FF81917F01882309F4ADC123
S11309F0853239F493FD859193FF81917F0185328E
S1130A0021F4B60190E0C0D1E8CF912C212C312CF7
S1130A10FFE1F315D8F08B3279F038F4803279F0B5
S1130A208332A1F4232D20611DC08D3261F0803307
S1130A3069F4232D216016C0832D8260382EE32DA6
S1130A40E4603E2E2AC0F32DF8601DC037FC2DC093
S1130A5020ED280F2A3040F08E32B9F436FC75C1EF
S1130A60232D2064322E19C036FE06C08AE0989EDB
S1130A70200D1124922E11C0EAE02E9E200D112487
S1130A80222EF32DF0623F2E08C08C3621F4832DE4
S1130A908068382E02C0883641F4F70193FD8591B1
S1130AA093FF81917F018111B3CF982F9F7D95543E
S1130AB0933028F40C5F1F4F9FE399830DC0833656
S1130AC031F0833771F0833509F055C020C0F80147
S1130AD0808189830E5F1F4F88248394912C530156
S1130AE012C02801F2E04F0E511CF801A080B18021
S1130AF036FE03C0692D70E002C06FEF7FEFC501C1
S1130B0038D14C018201F32DFF773F2E15C0280107
S1130B1022E0420E511CF801A080B18036FE03C0D1
S1130B20692D70E002C06FEF7FEFC50117D14C0152
S1130B30F32DF0683F2E820133FC19C0822D90E022
S1130B4088169906A0F4B60180E290E01DD12A949B
S1130B50F5CFF50137FC859137FE81915F01B60130
S1130B6090E012D121102A9421E0821A9108811474
S1130B70910479F7E1C0843611F0893639F5F8012A
S1130B8037FE07C060817181828193810C5F1F4FA2
S1130B9008C060817181072E000C880B990B0E5FD1
S1130BA01F4FF32DFF763F2E97FF09C09095809538
S1130BB0709561957F4F8F4F9F4FF0683F2E2AE0CD
S1130BC030E0A3011DD1882E861844C0853731F446
S1130BD0232D2F7EB22E2AE030E025C0932D997F5D
S1130BE0B92E8F36C1F018F4883579F0AEC080374D
S1130BF019F0883721F0A9C0E92FE061BE2EB4FEB8
S1130C000DC0FB2DF460BF2E09C034FE0AC0292F8D
S1130C102660B22E06C028E030E005C020E130E0B6
S1130C2002C020E132E0F801B7FE07C060817181A3
S1130C30828193810C5F1F4F06C06081718180E0C7
S1130C4090E00E5F1F4FA301DBD0882E8618FB2D8A
S1130C50FF773F2E36FE0DC0232D2E7FA22E891442
S1130C6058F434FE0BC032FC09C0832D8E7EA82EAE
S1130C7005C0B82CA32C03C0B82C01C0B92CA4FE09
S1130C800FC0FE01E80DF11D8081803321F49A2DFF
S1130C90997EA92E09C0A2FE06C0B394B39404C0E1
S1130CA08A2D867809F0B394A3FC10C0A0FE06C078
S1130CB0B21480F4280C922C9B180DC0B21458F472
S1130CC0B60180E290E060D0B394F8CFB21418F487
S1130CD02B1802C0982C212CA4FE0FC0B60180E36F
S1130CE090E052D0A2FE16C0A1FC03C088E790E0B9
S1130CF002C088E590E0B6010CC08A2D867851F0D8
S1130D00A1FE02C08BE201C080E2A7FC8DE2B60125
S1130D1090E03AD0891430F4B60180E390E034D006
S1130D209A94F8CF8A94F301E80DF11D8081B601FD
S1130D3090E02AD08110F6CF222009F44ECEB601DD
S1130D4080E290E021D02A94F7CFF6018681978142
S1130D5002C08FEF9FEF2B96E2E1E1C0FC0105900A
S1130D60615070400110D8F7809590958E0F9F1FA9
S1130D700895FC016150704001900110D8F78095EE
S1130D8090958E0F9F1F08950F931F93CF93DF931A
S1130D90FB01238121FD03C08FEF9FEF2CC022FFB5
S1130DA016C046815781248135814217530744F484
S1130DB0A081B1819D012F5F3F4F318320838C93AC
S1130DC0268137812F5F3F4F3783268314C08B01E1
S1130DD0EC01FB010084F185E02D0995892BE1F6F6
S1130DE0D80116968D919C911797019617969C930E
S1130DF08E931697CE01DF91CF911F910F91089595
S1130E00FA01AA27283051F1203181F1E8946F9337
S1130E106E7F6E5F7F4F8F4F9F4FAF4FB1E03ED0DD
S1130E20B4E03CD0670F781F891F9A1FA11D680F7B
S1130E30791F8A1F911DA11D6A0F711D811D911DAE
S1130E40A11D20D009F468943F912AE0269F112423
S1130E503019305D3193DEF6CF010895462F477087
S1130E60405D4193B3E00FD0C9F7F6CF462F4F70E2
S1130E70405D4A3318F0495D31FD4052419302D040
S1130E80A9F7EACFB4E0A6959795879577956795E6
S1130E90BA95C9F700976105710508959B01AC01E6
S1130EA00A2E06945795479537952795BA95C9F70D
S1130EB0620F731F841F951FA01D0895E199FECF33
S1130EC09FBB8EBBE09A99278DB30895262FE19995
S1130ED0FECF9FBB8EBB2DBB0FB6F894E29AE19A6E
S1130EE00FBE019608952F923F924F925F926F9298
S1130EF07F928F929F92AF92BF92CF92DF92EF92A6
S1130F00FF920F931F93CF93DF93CDB7DEB7CA1B26
S1130F10DB0B0FB6F894DEBF0FBECDBF09942A8851
S1130F20398848885F846E847D848C849B84AA84F9
S1130F30B984C884DF80EE80FD800C811B81AA8186
S1130F40B981CE0FD11D0FB6F894DEBF0FBECDBF51
S10B0F50ED010895F894FFCFB0
S10F0F582530325800535441525400001C
S9030000FC
